{
  "_format": "hh-sol-artifact-1",
  "contractName": "Provenance",
  "sourceName": "contracts/Provenance.sol",
  "abi": [
    {
      "inputs": [],
      "stateMutability": "nonpayable",
      "type": "constructor"
    },
    {
      "inputs": [
        {
          "internalType": "uint256",
          "name": "",
          "type": "uint256"
        },
        {
          "internalType": "uint256",
          "name": "",
          "type": "uint256"
        }
      ],
      "name": "artworkToHistory",
      "outputs": [
        {
          "internalType": "address",
          "name": "owner",
          "type": "address"
        },
        {
          "internalType": "uint256",
          "name": "date",
          "type": "uint256"
        }
      ],
      "stateMutability": "view",
      "type": "function"
    },
    {
      "inputs": [],
      "name": "getArtist",
      "outputs": [
        {
          "internalType": "string[]",
          "name": "",
          "type": "string[]"
        }
      ],
      "stateMutability": "view",
      "type": "function"
    },
    {
      "inputs": [],
      "name": "getArtwork",
      "outputs": [
        {
          "internalType": "uint256[]",
          "name": "",
          "type": "uint256[]"
        }
      ],
      "stateMutability": "view",
      "type": "function"
    },
    {
      "inputs": [
        {
          "internalType": "uint256",
          "name": "artHash",
          "type": "uint256"
        }
      ],
      "name": "getArtworkHistory",
      "outputs": [
        {
          "components": [
            {
              "internalType": "address",
              "name": "owner",
              "type": "address"
            },
            {
              "internalType": "uint256",
              "name": "date",
              "type": "uint256"
            }
          ],
          "internalType": "struct Provenance.History[]",
          "name": "",
          "type": "tuple[]"
        }
      ],
      "stateMutability": "view",
      "type": "function"
    },
    {
      "inputs": [
        {
          "internalType": "string",
          "name": "_name",
          "type": "string"
        }
      ],
      "name": "registerArtist",
      "outputs": [],
      "stateMutability": "nonpayable",
      "type": "function"
    },
    {
      "inputs": [
        {
          "internalType": "string",
          "name": "artURI",
          "type": "string"
        }
      ],
      "name": "registerArtwork",
      "outputs": [
        {
          "internalType": "uint256",
          "name": "artId",
          "type": "uint256"
        }
      ],
      "stateMutability": "nonpayable",
      "type": "function"
    },
    {
      "inputs": [
        {
          "internalType": "address",
          "name": "",
          "type": "address"
        }
      ],
      "name": "registeredArtists",
      "outputs": [
        {
          "internalType": "address",
          "name": "artistAddress",
          "type": "address"
        },
        {
          "internalType": "string",
          "name": "name",
          "type": "string"
        },
        {
          "internalType": "bool",
          "name": "exists",
          "type": "bool"
        }
      ],
      "stateMutability": "view",
      "type": "function"
    },
    {
      "inputs": [
        {
          "internalType": "address",
          "name": "previousOwner",
          "type": "address"
        },
        {
          "internalType": "address",
          "name": "newOwner",
          "type": "address"
        }
      ],
      "name": "transferOwnership",
      "outputs": [],
      "stateMutability": "nonpayable",
      "type": "function"
    }
  ],
  "bytecode": "0x60806040523480156200001157600080fd5b506200005d6040518060400160405280601481526020017f4465706c6f79696e672050726f76656e616e63650000000000000000000000008152506200006360201b620009b81760201c565b620001f7565b62000103816040516024016200007a9190620001d3565b6040516020818303038152906040527f41304fac000000000000000000000000000000000000000000000000000000007bffffffffffffffffffffffffffffffffffffffffffffffffffffffff19166020820180517bffffffffffffffffffffffffffffffffffffffffffffffffffffffff83818316178352505050506200010660201b60201c565b50565b60008151905060006a636f6e736f6c652e6c6f679050602083016000808483855afa5050505050565b600081519050919050565b600082825260208201905092915050565b60005b838110156200016b5780820151818401526020810190506200014e565b838111156200017b576000848401525b50505050565b6000601f19601f8301169050919050565b60006200019f826200012f565b620001ab81856200013a565b9350620001bd8185602086016200014b565b620001c88162000181565b840191505092915050565b60006020820190508181036000830152620001ef818462000192565b905092915050565b6143b680620002076000396000f3fe60806040523480156200001157600080fd5b5060043610620000945760003560e01c80639355d41911620000635780639355d4191462000148578063e094826b1462000168578063e53774ec146200018a578063f558369f14620001c05762000094565b8063151829fc14620000995780632aaf2ed114620000cf578063325adc6214620001065780636d4354211462000128575b600080fd5b620000b76004803603810190620000b1919062000d04565b620001f8565b604051620000c6919062000d70565b60405180910390f35b620000ed6004803603810190620000e7919062000dbe565b620003e9565b604051620000fd92919062000e4a565b60405180910390f35b620001106200044b565b6040516200011f919062000f45565b60405180910390f35b62000146600480360381019062000140919062000f9a565b620004a5565b005b62000166600480360381019062000160919062000d04565b620004a9565b005b620001726200071a565b60405162000181919062001144565b60405180910390f35b620001a86004803603810190620001a2919062001168565b620007fd565b604051620001b791906200129b565b60405180910390f35b620001de6004803603810190620001d89190620012bf565b620008d1565b604051620001ef9392919062001360565b60405180910390f35b6000600360003373ffffffffffffffffffffffffffffffffffffffff1673ffffffffffffffffffffffffffffffffffffffff16815260200190815260200160002060030160009054906101000a900460ff166200028c576040517f08c379a00000000000000000000000000000000000000000000000000000000081526004016200028390620013f4565b60405180910390fd5b60006040516200029c9062000a7e565b604051809103906000f080158015620002b9573d6000803e3d6000fd5b5090508073ffffffffffffffffffffffffffffffffffffffff16630cadfba333856040518363ffffffff1660e01b8152600401620002f992919062001416565b602060405180830381600087803b1580156200031457600080fd5b505af115801562000329573d6000803e3d6000fd5b505050506040513d601f19601f820116820180604052508101906200034f919062001461565b9150600360003373ffffffffffffffffffffffffffffffffffffffff1673ffffffffffffffffffffffffffffffffffffffff168152602001908152602001600020600201829080600181540180825580915050600190039060005260206000200160009091909190915055600282908060018154018082558091505060019003906000526020600020016000909190919091505550919050565b600460205281600052604060002081815481106200040657600080fd5b9060005260206000209060020201600091509150508060000160009054906101000a900473ffffffffffffffffffffffffffffffffffffffff16908060010154905082565b606060028054806020026020016040519081016040528092919081815260200182805480156200049b57602002820191906000526020600020905b81548152602001906001019080831162000486575b5050505050905090565b5050565b600073ffffffffffffffffffffffffffffffffffffffff163373ffffffffffffffffffffffffffffffffffffffff1614156200051c576040517f08c379a00000000000000000000000000000000000000000000000000000000081526004016200051390620014e3565b60405180910390fd5b600360003373ffffffffffffffffffffffffffffffffffffffff1673ffffffffffffffffffffffffffffffffffffffff16815260200190815260200160002060030160009054906101000a900460ff1615620005af576040517f08c379a0000000000000000000000000000000000000000000000000000000008152600401620005a69062001555565b60405180910390fd5b6060600060405180608001604052803373ffffffffffffffffffffffffffffffffffffffff16815260200184815260200183815260200160011515815250905080600360003373ffffffffffffffffffffffffffffffffffffffff1673ffffffffffffffffffffffffffffffffffffffff16815260200190815260200160002060008201518160000160006101000a81548173ffffffffffffffffffffffffffffffffffffffff021916908373ffffffffffffffffffffffffffffffffffffffff16021790555060208201518160010190805190602001906200069492919062000a8c565b506040820151816002019080519060200190620006b392919062000b1d565b5060608201518160030160006101000a81548160ff0219169083151502179055509050506000839080600181540180825580915050600190039060005260206000200160009091909190915090805190602001906200071492919062000a8c565b50505050565b60606000805480602002602001604051908101604052809291908181526020016000905b82821015620007f45783829060005260206000200180546200076090620015a6565b80601f01602080910402602001604051908101604052809291908181526020018280546200078e90620015a6565b8015620007df5780601f10620007b357610100808354040283529160200191620007df565b820191906000526020600020905b815481529060010190602001808311620007c157829003601f168201915b5050505050815260200190600101906200073e565b50505050905090565b606060046000838152602001908152602001600020805480602002602001604051908101604052809291908181526020016000905b82821015620008c657838290600052602060002090600202016040518060400160405290816000820160009054906101000a900473ffffffffffffffffffffffffffffffffffffffff1673ffffffffffffffffffffffffffffffffffffffff1673ffffffffffffffffffffffffffffffffffffffff1681526020016001820154815250508152602001906001019062000832565b505050509050919050565b60036020528060005260406000206000915090508060000160009054906101000a900473ffffffffffffffffffffffffffffffffffffffff16908060010180546200091c90620015a6565b80601f01602080910402602001604051908101604052809291908181526020018280546200094a90620015a6565b80156200099b5780601f106200096f576101008083540402835291602001916200099b565b820191906000526020600020905b8154815290600101906020018083116200097d57829003601f168201915b5050505050908060030160009054906101000a900460ff16905083565b62000a5281604051602401620009cf9190620015dc565b6040516020818303038152906040527f41304fac000000000000000000000000000000000000000000000000000000007bffffffffffffffffffffffffffffffffffffffffffffffffffffffff19166020820180517bffffffffffffffffffffffffffffffffffffffffffffffffffffffff838183161783525050505062000a55565b50565b60008151905060006a636f6e736f6c652e6c6f679050602083016000808483855afa5050505050565b612d80806200160183390190565b82805462000a9a90620015a6565b90600052602060002090601f01602090048101928262000abe576000855562000b0a565b82601f1062000ad957805160ff191683800117855562000b0a565b8280016001018555821562000b0a579182015b8281111562000b0957825182559160200191906001019062000aec565b5b50905062000b19919062000b6f565b5090565b82805482825590600052602060002090810192821562000b5c579160200282015b8281111562000b5b57825182559160200191906001019062000b3e565b5b50905062000b6b919062000b6f565b5090565b5b8082111562000b8a57600081600090555060010162000b70565b5090565b6000604051905090565b600080fd5b600080fd5b600080fd5b600080fd5b6000601f19601f8301169050919050565b7f4e487b7100000000000000000000000000000000000000000000000000000000600052604160045260246000fd5b62000bf78262000bac565b810181811067ffffffffffffffff8211171562000c195762000c1862000bbd565b5b80604052505050565b600062000c2e62000b8e565b905062000c3c828262000bec565b919050565b600067ffffffffffffffff82111562000c5f5762000c5e62000bbd565b5b62000c6a8262000bac565b9050602081019050919050565b82818337600083830152505050565b600062000c9d62000c978462000c41565b62000c22565b90508281526020810184848401111562000cbc5762000cbb62000ba7565b5b62000cc984828562000c77565b509392505050565b600082601f83011262000ce95762000ce862000ba2565b5b813562000cfb84826020860162000c86565b91505092915050565b60006020828403121562000d1d5762000d1c62000b98565b5b600082013567ffffffffffffffff81111562000d3e5762000d3d62000b9d565b5b62000d4c8482850162000cd1565b91505092915050565b6000819050919050565b62000d6a8162000d55565b82525050565b600060208201905062000d87600083018462000d5f565b92915050565b62000d988162000d55565b811462000da457600080fd5b50565b60008135905062000db88162000d8d565b92915050565b6000806040838503121562000dd85762000dd762000b98565b5b600062000de88582860162000da7565b925050602062000dfb8582860162000da7565b9150509250929050565b600073ffffffffffffffffffffffffffffffffffffffff82169050919050565b600062000e328262000e05565b9050919050565b62000e448162000e25565b82525050565b600060408201905062000e61600083018562000e39565b62000e70602083018462000d5f565b9392505050565b600081519050919050565b600082825260208201905092915050565b6000819050602082019050919050565b62000eae8162000d55565b82525050565b600062000ec2838362000ea3565b60208301905092915050565b6000602082019050919050565b600062000ee88262000e77565b62000ef4818562000e82565b935062000f018362000e93565b8060005b8381101562000f3857815162000f1c888262000eb4565b975062000f298362000ece565b92505060018101905062000f05565b5085935050505092915050565b6000602082019050818103600083015262000f61818462000edb565b905092915050565b62000f748162000e25565b811462000f8057600080fd5b50565b60008135905062000f948162000f69565b92915050565b6000806040838503121562000fb45762000fb362000b98565b5b600062000fc48582860162000f83565b925050602062000fd78582860162000f83565b9150509250929050565b600081519050919050565b600082825260208201905092915050565b6000819050602082019050919050565b600081519050919050565b600082825260208201905092915050565b60005b83811015620010495780820151818401526020810190506200102c565b8381111562001059576000848401525b50505050565b60006200106c826200100d565b62001078818562001018565b93506200108a81856020860162001029565b620010958162000bac565b840191505092915050565b6000620010ae83836200105f565b905092915050565b6000602082019050919050565b6000620010d08262000fe1565b620010dc818562000fec565b935083602082028501620010f08562000ffd565b8060005b85811015620011325784840389528151620011108582620010a0565b94506200111d83620010b6565b925060208a01995050600181019050620010f4565b50829750879550505050505092915050565b60006020820190508181036000830152620011608184620010c3565b905092915050565b60006020828403121562001181576200118062000b98565b5b6000620011918482850162000da7565b91505092915050565b600081519050919050565b600082825260208201905092915050565b6000819050602082019050919050565b620011d18162000e25565b82525050565b604082016000820151620011ef6000850182620011c6565b50602082015162001204602085018262000ea3565b50505050565b6000620012188383620011d7565b60408301905092915050565b6000602082019050919050565b60006200123e826200119a565b6200124a8185620011a5565b93506200125783620011b6565b8060005b838110156200128e5781516200127288826200120a565b97506200127f8362001224565b9250506001810190506200125b565b5085935050505092915050565b60006020820190508181036000830152620012b7818462001231565b905092915050565b600060208284031215620012d857620012d762000b98565b5b6000620012e88482850162000f83565b91505092915050565b600082825260208201905092915050565b60006200130f826200100d565b6200131b8185620012f1565b93506200132d81856020860162001029565b620013388162000bac565b840191505092915050565b60008115159050919050565b6200135a8162001343565b82525050565b600060608201905062001377600083018662000e39565b81810360208301526200138b818562001302565b90506200139c60408301846200134f565b949350505050565b7f417274697374206d757374206265207265676973746572656400000000000000600082015250565b6000620013dc601983620012f1565b9150620013e982620013a4565b602082019050919050565b600060208201905081810360008301526200140f81620013cd565b9050919050565b60006040820190506200142d600083018562000e39565b818103602083015262001441818462001302565b90509392505050565b6000815190506200145b8162000d8d565b92915050565b6000602082840312156200147a576200147962000b98565b5b60006200148a848285016200144a565b91505092915050565b7f4172746973742063616e206e6f74206861766520302061646472657373000000600082015250565b6000620014cb601d83620012f1565b9150620014d88262001493565b602082019050919050565b60006020820190508181036000830152620014fe81620014bc565b9050919050565b7f41727469737420697320616c7265616479207265676973746572656400000000600082015250565b60006200153d601c83620012f1565b91506200154a8262001505565b602082019050919050565b6000602082019050818103600083015262001570816200152e565b9050919050565b7f4e487b7100000000000000000000000000000000000000000000000000000000600052602260045260246000fd5b60006002820490506001821680620015bf57607f821691505b60208210811415620015d657620015d562001577565b5b50919050565b60006020820190508181036000830152620015f8818462001302565b90509291505056fe60806040523480156200001157600080fd5b506040518060400160405280600f81526020017f4f726967696e616c417274776f726b00000000000000000000000000000000008152506040518060400160405280600381526020017f4f41570000000000000000000000000000000000000000000000000000000000815250816000908051906020019062000096929190620000b8565b508060019080519060200190620000af929190620000b8565b505050620001cd565b828054620000c69062000197565b90600052602060002090601f016020900481019282620000ea576000855562000136565b82601f106200010557805160ff191683800117855562000136565b8280016001018555821562000136579182015b828111156200013557825182559160200191906001019062000118565b5b50905062000145919062000149565b5090565b5b80821115620001645760008160009055506001016200014a565b5090565b7f4e487b7100000000000000000000000000000000000000000000000000000000600052602260045260246000fd5b60006002820490506001821680620001b057607f821691505b60208210811415620001c757620001c662000168565b5b50919050565b612ba380620001dd6000396000f3fe608060405234801561001057600080fd5b50600436106100ea5760003560e01c80636352211e1161008c578063a22cb46511610066578063a22cb4651461026f578063b88d4fde1461028b578063c87b56dd146102a7578063e985e9c5146102d7576100ea565b80636352211e146101f157806370a082311461022157806395d89b4114610251576100ea565b8063095ea7b3116100c8578063095ea7b31461016d5780630cadfba31461018957806323b872dd146101b957806342842e0e146101d5576100ea565b806301ffc9a7146100ef57806306fdde031461011f578063081812fc1461013d575b600080fd5b61010960048036038101906101049190611905565b610307565b604051610116919061194d565b60405180910390f35b6101276103e9565b6040516101349190611a01565b60405180910390f35b61015760048036038101906101529190611a59565b61047b565b6040516101649190611ac7565b60405180910390f35b61018760048036038101906101829190611b0e565b610500565b005b6101a3600480360381019061019e9190611c83565b610618565b6040516101b09190611cee565b60405180910390f35b6101d360048036038101906101ce9190611d09565b610650565b005b6101ef60048036038101906101ea9190611d09565b6106b0565b005b61020b60048036038101906102069190611a59565b6106d0565b6040516102189190611ac7565b60405180910390f35b61023b60048036038101906102369190611d5c565b610782565b6040516102489190611cee565b60405180910390f35b61025961083a565b6040516102669190611a01565b60405180910390f35b61028960048036038101906102849190611db5565b6108cc565b005b6102a560048036038101906102a09190611e96565b610a4d565b005b6102c160048036038101906102bc9190611a59565b610aaf565b6040516102ce9190611a01565b60405180910390f35b6102f160048036038101906102ec9190611f19565b610c01565b6040516102fe919061194d565b60405180910390f35b60007f80ac58cd000000000000000000000000000000000000000000000000000000007bffffffffffffffffffffffffffffffffffffffffffffffffffffffff1916827bffffffffffffffffffffffffffffffffffffffffffffffffffffffff191614806103d257507f5b5e139f000000000000000000000000000000000000000000000000000000007bffffffffffffffffffffffffffffffffffffffffffffffffffffffff1916827bffffffffffffffffffffffffffffffffffffffffffffffffffffffff1916145b806103e257506103e182610c95565b5b9050919050565b6060600080546103f890611f88565b80601f016020809104026020016040519081016040528092919081815260200182805461042490611f88565b80156104715780601f1061044657610100808354040283529160200191610471565b820191906000526020600020905b81548152906001019060200180831161045457829003601f168201915b5050505050905090565b600061048682610cff565b6104c5576040517f08c379a00000000000000000000000000000000000000000000000000000000081526004016104bc9061202c565b60405180910390fd5b6004600083815260200190815260200160002060009054906101000a900473ffffffffffffffffffffffffffffffffffffffff169050919050565b600061050b826106d0565b90508073ffffffffffffffffffffffffffffffffffffffff168373ffffffffffffffffffffffffffffffffffffffff16141561057c576040517f08c379a0000000000000000000000000000000000000000000000000000000008152600401610573906120be565b60405180910390fd5b8073ffffffffffffffffffffffffffffffffffffffff1661059b610d6b565b73ffffffffffffffffffffffffffffffffffffffff1614806105ca57506105c9816105c4610d6b565b610c01565b5b610609576040517f08c379a000000000000000000000000000000000000000000000000000000000815260040161060090612150565b60405180910390fd5b6106138383610d73565b505050565b60006106246007610e2c565b60006106306007610e42565b905061063c8482610e50565b610646818461101e565b8091505092915050565b61066161065b610d6b565b82611092565b6106a0576040517f08c379a0000000000000000000000000000000000000000000000000000000008152600401610697906121e2565b60405180910390fd5b6106ab838383611170565b505050565b6106cb83838360405180602001604052806000815250610a4d565b505050565b6000806002600084815260200190815260200160002060009054906101000a900473ffffffffffffffffffffffffffffffffffffffff169050600073ffffffffffffffffffffffffffffffffffffffff168173ffffffffffffffffffffffffffffffffffffffff161415610779576040517f08c379a000000000000000000000000000000000000000000000000000000000815260040161077090612274565b60405180910390fd5b80915050919050565b60008073ffffffffffffffffffffffffffffffffffffffff168273ffffffffffffffffffffffffffffffffffffffff1614156107f3576040517f08c379a00000000000000000000000000000000000000000000000000000000081526004016107ea90612306565b60405180910390fd5b600360008373ffffffffffffffffffffffffffffffffffffffff1673ffffffffffffffffffffffffffffffffffffffff168152602001908152602001600020549050919050565b60606001805461084990611f88565b80601f016020809104026020016040519081016040528092919081815260200182805461087590611f88565b80156108c25780601f10610897576101008083540402835291602001916108c2565b820191906000526020600020905b8154815290600101906020018083116108a557829003601f168201915b5050505050905090565b6108d4610d6b565b73ffffffffffffffffffffffffffffffffffffffff168273ffffffffffffffffffffffffffffffffffffffff161415610942576040517f08c379a000000000000000000000000000000000000000000000000000000000815260040161093990612372565b60405180910390fd5b806005600061094f610d6b565b73ffffffffffffffffffffffffffffffffffffffff1673ffffffffffffffffffffffffffffffffffffffff16815260200190815260200160002060008473ffffffffffffffffffffffffffffffffffffffff1673ffffffffffffffffffffffffffffffffffffffff16815260200190815260200160002060006101000a81548160ff0219169083151502179055508173ffffffffffffffffffffffffffffffffffffffff166109fc610d6b565b73ffffffffffffffffffffffffffffffffffffffff167f17307eab39ab6107e8899845ad3d59bd9653f200f220920489ca2b5937696c3183604051610a41919061194d565b60405180910390a35050565b610a5e610a58610d6b565b83611092565b610a9d576040517f08c379a0000000000000000000000000000000000000000000000000000000008152600401610a94906121e2565b60405180910390fd5b610aa9848484846113cc565b50505050565b6060610aba82610cff565b610af9576040517f08c379a0000000000000000000000000000000000000000000000000000000008152600401610af090612404565b60405180910390fd5b6000600660008481526020019081526020016000208054610b1990611f88565b80601f0160208091040260200160405190810160405280929190818152602001828054610b4590611f88565b8015610b925780601f10610b6757610100808354040283529160200191610b92565b820191906000526020600020905b815481529060010190602001808311610b7557829003601f168201915b505050505090506000610ba3611428565b9050600081511415610bb9578192505050610bfc565b600082511115610bee578082604051602001610bd6929190612460565b60405160208183030381529060405292505050610bfc565b610bf78461143f565b925050505b919050565b6000600560008473ffffffffffffffffffffffffffffffffffffffff1673ffffffffffffffffffffffffffffffffffffffff16815260200190815260200160002060008373ffffffffffffffffffffffffffffffffffffffff1673ffffffffffffffffffffffffffffffffffffffff16815260200190815260200160002060009054906101000a900460ff16905092915050565b60007f01ffc9a7000000000000000000000000000000000000000000000000000000007bffffffffffffffffffffffffffffffffffffffffffffffffffffffff1916827bffffffffffffffffffffffffffffffffffffffffffffffffffffffff1916149050919050565b60008073ffffffffffffffffffffffffffffffffffffffff166002600084815260200190815260200160002060009054906101000a900473ffffffffffffffffffffffffffffffffffffffff1673ffffffffffffffffffffffffffffffffffffffff1614159050919050565b600033905090565b816004600083815260200190815260200160002060006101000a81548173ffffffffffffffffffffffffffffffffffffffff021916908373ffffffffffffffffffffffffffffffffffffffff160217905550808273ffffffffffffffffffffffffffffffffffffffff16610de6836106d0565b73ffffffffffffffffffffffffffffffffffffffff167f8c5be1e5ebec7d5bd14f71427d1e84f3dd0314c0f7b2291e5b200ac8c7c3b92560405160405180910390a45050565b6001816000016000828254019250508190555050565b600081600001549050919050565b600073ffffffffffffffffffffffffffffffffffffffff168273ffffffffffffffffffffffffffffffffffffffff161415610ec0576040517f08c379a0000000000000000000000000000000000000000000000000000000008152600401610eb7906124d0565b60405180910390fd5b610ec981610cff565b15610f09576040517f08c379a0000000000000000000000000000000000000000000000000000000008152600401610f009061253c565b60405180910390fd5b610f15600083836114e6565b6001600360008473ffffffffffffffffffffffffffffffffffffffff1673ffffffffffffffffffffffffffffffffffffffff1681526020019081526020016000206000828254610f65919061258b565b92505081905550816002600083815260200190815260200160002060006101000a81548173ffffffffffffffffffffffffffffffffffffffff021916908373ffffffffffffffffffffffffffffffffffffffff160217905550808273ffffffffffffffffffffffffffffffffffffffff16600073ffffffffffffffffffffffffffffffffffffffff167fddf252ad1be2c89b69c2b068fc378daa952ba7f163c4a11628f55a4df523b3ef60405160405180910390a45050565b61102782610cff565b611066576040517f08c379a000000000000000000000000000000000000000000000000000000000815260040161105d90612653565b60405180910390fd5b8060066000848152602001908152602001600020908051906020019061108d9291906117f6565b505050565b600061109d82610cff565b6110dc576040517f08c379a00000000000000000000000000000000000000000000000000000000081526004016110d3906126e5565b60405180910390fd5b60006110e7836106d0565b90508073ffffffffffffffffffffffffffffffffffffffff168473ffffffffffffffffffffffffffffffffffffffff16148061115657508373ffffffffffffffffffffffffffffffffffffffff1661113e8461047b565b73ffffffffffffffffffffffffffffffffffffffff16145b8061116757506111668185610c01565b5b91505092915050565b8273ffffffffffffffffffffffffffffffffffffffff16611190826106d0565b73ffffffffffffffffffffffffffffffffffffffff16146111e6576040517f08c379a00000000000000000000000000000000000000000000000000000000081526004016111dd90612777565b60405180910390fd5b600073ffffffffffffffffffffffffffffffffffffffff168273ffffffffffffffffffffffffffffffffffffffff161415611256576040517f08c379a000000000000000000000000000000000000000000000000000000000815260040161124d90612809565b60405180910390fd5b6112618383836114e6565b61126c600082610d73565b6001600360008573ffffffffffffffffffffffffffffffffffffffff1673ffffffffffffffffffffffffffffffffffffffff16815260200190815260200160002060008282546112bc9190612829565b925050819055506001600360008473ffffffffffffffffffffffffffffffffffffffff1673ffffffffffffffffffffffffffffffffffffffff1681526020019081526020016000206000828254611313919061258b565b92505081905550816002600083815260200190815260200160002060006101000a81548173ffffffffffffffffffffffffffffffffffffffff021916908373ffffffffffffffffffffffffffffffffffffffff160217905550808273ffffffffffffffffffffffffffffffffffffffff168473ffffffffffffffffffffffffffffffffffffffff167fddf252ad1be2c89b69c2b068fc378daa952ba7f163c4a11628f55a4df523b3ef60405160405180910390a4505050565b6113d7848484611170565b6113e3848484846114eb565b611422576040517f08c379a0000000000000000000000000000000000000000000000000000000008152600401611419906128cf565b60405180910390fd5b50505050565b606060405180602001604052806000815250905090565b606061144a82610cff565b611489576040517f08c379a000000000000000000000000000000000000000000000000000000000815260040161148090612961565b60405180910390fd5b6000611493611428565b905060008151116114b357604051806020016040528060008152506114de565b806114bd84611682565b6040516020016114ce929190612460565b6040516020818303038152906040525b915050919050565b505050565b600061150c8473ffffffffffffffffffffffffffffffffffffffff166117e3565b15611675578373ffffffffffffffffffffffffffffffffffffffff1663150b7a02611535610d6b565b8786866040518563ffffffff1660e01b815260040161155794939291906129d6565b602060405180830381600087803b15801561157157600080fd5b505af19250505080156115a257506040513d601f19601f8201168201806040525081019061159f9190612a37565b60015b611625573d80600081146115d2576040519150601f19603f3d011682016040523d82523d6000602084013e6115d7565b606091505b5060008151141561161d576040517f08c379a0000000000000000000000000000000000000000000000000000000008152600401611614906128cf565b60405180910390fd5b805181602001fd5b63150b7a0260e01b7bffffffffffffffffffffffffffffffffffffffffffffffffffffffff1916817bffffffffffffffffffffffffffffffffffffffffffffffffffffffff19161491505061167a565b600190505b949350505050565b606060008214156116ca576040518060400160405280600181526020017f300000000000000000000000000000000000000000000000000000000000000081525090506117de565b600082905060005b600082146116fc5780806116e590612a64565b915050600a826116f59190612adc565b91506116d2565b60008167ffffffffffffffff81111561171857611717611b58565b5b6040519080825280601f01601f19166020018201604052801561174a5781602001600182028036833780820191505090505b5090505b600085146117d7576001826117639190612829565b9150600a856117729190612b0d565b603061177e919061258b565b60f81b81838151811061179457611793612b3e565b5b60200101907effffffffffffffffffffffffffffffffffffffffffffffffffffffffffffff1916908160001a905350600a856117d09190612adc565b945061174e565b8093505050505b919050565b600080823b905060008111915050919050565b82805461180290611f88565b90600052602060002090601f016020900481019282611824576000855561186b565b82601f1061183d57805160ff191683800117855561186b565b8280016001018555821561186b579182015b8281111561186a57825182559160200191906001019061184f565b5b509050611878919061187c565b5090565b5b8082111561189557600081600090555060010161187d565b5090565b6000604051905090565b600080fd5b600080fd5b60007fffffffff0000000000000000000000000000000000000000000000000000000082169050919050565b6118e2816118ad565b81146118ed57600080fd5b50565b6000813590506118ff816118d9565b92915050565b60006020828403121561191b5761191a6118a3565b5b6000611929848285016118f0565b91505092915050565b60008115159050919050565b61194781611932565b82525050565b6000602082019050611962600083018461193e565b92915050565b600081519050919050565b600082825260208201905092915050565b60005b838110156119a2578082015181840152602081019050611987565b838111156119b1576000848401525b50505050565b6000601f19601f8301169050919050565b60006119d382611968565b6119dd8185611973565b93506119ed818560208601611984565b6119f6816119b7565b840191505092915050565b60006020820190508181036000830152611a1b81846119c8565b905092915050565b6000819050919050565b611a3681611a23565b8114611a4157600080fd5b50565b600081359050611a5381611a2d565b92915050565b600060208284031215611a6f57611a6e6118a3565b5b6000611a7d84828501611a44565b91505092915050565b600073ffffffffffffffffffffffffffffffffffffffff82169050919050565b6000611ab182611a86565b9050919050565b611ac181611aa6565b82525050565b6000602082019050611adc6000830184611ab8565b92915050565b611aeb81611aa6565b8114611af657600080fd5b50565b600081359050611b0881611ae2565b92915050565b60008060408385031215611b2557611b246118a3565b5b6000611b3385828601611af9565b9250506020611b4485828601611a44565b9150509250929050565b600080fd5b600080fd5b7f4e487b7100000000000000000000000000000000000000000000000000000000600052604160045260246000fd5b611b90826119b7565b810181811067ffffffffffffffff82111715611baf57611bae611b58565b5b80604052505050565b6000611bc2611899565b9050611bce8282611b87565b919050565b600067ffffffffffffffff821115611bee57611bed611b58565b5b611bf7826119b7565b9050602081019050919050565b82818337600083830152505050565b6000611c26611c2184611bd3565b611bb8565b905082815260208101848484011115611c4257611c41611b53565b5b611c4d848285611c04565b509392505050565b600082601f830112611c6a57611c69611b4e565b5b8135611c7a848260208601611c13565b91505092915050565b60008060408385031215611c9a57611c996118a3565b5b6000611ca885828601611af9565b925050602083013567ffffffffffffffff811115611cc957611cc86118a8565b5b611cd585828601611c55565b9150509250929050565b611ce881611a23565b82525050565b6000602082019050611d036000830184611cdf565b92915050565b600080600060608486031215611d2257611d216118a3565b5b6000611d3086828701611af9565b9350506020611d4186828701611af9565b9250506040611d5286828701611a44565b9150509250925092565b600060208284031215611d7257611d716118a3565b5b6000611d8084828501611af9565b91505092915050565b611d9281611932565b8114611d9d57600080fd5b50565b600081359050611daf81611d89565b92915050565b60008060408385031215611dcc57611dcb6118a3565b5b6000611dda85828601611af9565b9250506020611deb85828601611da0565b9150509250929050565b600067ffffffffffffffff821115611e1057611e0f611b58565b5b611e19826119b7565b9050602081019050919050565b6000611e39611e3484611df5565b611bb8565b905082815260208101848484011115611e5557611e54611b53565b5b611e60848285611c04565b509392505050565b600082601f830112611e7d57611e7c611b4e565b5b8135611e8d848260208601611e26565b91505092915050565b60008060008060808587031215611eb057611eaf6118a3565b5b6000611ebe87828801611af9565b9450506020611ecf87828801611af9565b9350506040611ee087828801611a44565b925050606085013567ffffffffffffffff811115611f0157611f006118a8565b5b611f0d87828801611e68565b91505092959194509250565b60008060408385031215611f3057611f2f6118a3565b5b6000611f3e85828601611af9565b9250506020611f4f85828601611af9565b9150509250929050565b7f4e487b7100000000000000000000000000000000000000000000000000000000600052602260045260246000fd5b60006002820490506001821680611fa057607f821691505b60208210811415611fb457611fb3611f59565b5b50919050565b7f4552433732313a20617070726f76656420717565727920666f72206e6f6e657860008201527f697374656e7420746f6b656e0000000000000000000000000000000000000000602082015250565b6000612016602c83611973565b915061202182611fba565b604082019050919050565b6000602082019050818103600083015261204581612009565b9050919050565b7f4552433732313a20617070726f76616c20746f2063757272656e74206f776e6560008201527f7200000000000000000000000000000000000000000000000000000000000000602082015250565b60006120a8602183611973565b91506120b38261204c565b604082019050919050565b600060208201905081810360008301526120d78161209b565b9050919050565b7f4552433732313a20617070726f76652063616c6c6572206973206e6f74206f7760008201527f6e6572206e6f7220617070726f76656420666f7220616c6c0000000000000000602082015250565b600061213a603883611973565b9150612145826120de565b604082019050919050565b600060208201905081810360008301526121698161212d565b9050919050565b7f4552433732313a207472616e736665722063616c6c6572206973206e6f74206f60008201527f776e6572206e6f7220617070726f766564000000000000000000000000000000602082015250565b60006121cc603183611973565b91506121d782612170565b604082019050919050565b600060208201905081810360008301526121fb816121bf565b9050919050565b7f4552433732313a206f776e657220717565727920666f72206e6f6e657869737460008201527f656e7420746f6b656e0000000000000000000000000000000000000000000000602082015250565b600061225e602983611973565b915061226982612202565b604082019050919050565b6000602082019050818103600083015261228d81612251565b9050919050565b7f4552433732313a2062616c616e636520717565727920666f7220746865207a6560008201527f726f206164647265737300000000000000000000000000000000000000000000602082015250565b60006122f0602a83611973565b91506122fb82612294565b604082019050919050565b6000602082019050818103600083015261231f816122e3565b9050919050565b7f4552433732313a20617070726f766520746f2063616c6c657200000000000000600082015250565b600061235c601983611973565b915061236782612326565b602082019050919050565b6000602082019050818103600083015261238b8161234f565b9050919050565b7f45524337323155524953746f726167653a2055524920717565727920666f722060008201527f6e6f6e6578697374656e7420746f6b656e000000000000000000000000000000602082015250565b60006123ee603183611973565b91506123f982612392565b604082019050919050565b6000602082019050818103600083015261241d816123e1565b9050919050565b600081905092915050565b600061243a82611968565b6124448185612424565b9350612454818560208601611984565b80840191505092915050565b600061246c828561242f565b9150612478828461242f565b91508190509392505050565b7f4552433732313a206d696e7420746f20746865207a65726f2061646472657373600082015250565b60006124ba602083611973565b91506124c582612484565b602082019050919050565b600060208201905081810360008301526124e9816124ad565b9050919050565b7f4552433732313a20746f6b656e20616c7265616479206d696e74656400000000600082015250565b6000612526601c83611973565b9150612531826124f0565b602082019050919050565b6000602082019050818103600083015261255581612519565b9050919050565b7f4e487b7100000000000000000000000000000000000000000000000000000000600052601160045260246000fd5b600061259682611a23565b91506125a183611a23565b9250827fffffffffffffffffffffffffffffffffffffffffffffffffffffffffffffffff038211156125d6576125d561255c565b5b828201905092915050565b7f45524337323155524953746f726167653a2055524920736574206f66206e6f6e60008201527f6578697374656e7420746f6b656e000000000000000000000000000000000000602082015250565b600061263d602e83611973565b9150612648826125e1565b604082019050919050565b6000602082019050818103600083015261266c81612630565b9050919050565b7f4552433732313a206f70657261746f7220717565727920666f72206e6f6e657860008201527f697374656e7420746f6b656e0000000000000000000000000000000000000000602082015250565b60006126cf602c83611973565b91506126da82612673565b604082019050919050565b600060208201905081810360008301526126fe816126c2565b9050919050565b7f4552433732313a207472616e73666572206f6620746f6b656e2074686174206960008201527f73206e6f74206f776e0000000000000000000000000000000000000000000000602082015250565b6000612761602983611973565b915061276c82612705565b604082019050919050565b6000602082019050818103600083015261279081612754565b9050919050565b7f4552433732313a207472616e7366657220746f20746865207a65726f2061646460008201527f7265737300000000000000000000000000000000000000000000000000000000602082015250565b60006127f3602483611973565b91506127fe82612797565b604082019050919050565b60006020820190508181036000830152612822816127e6565b9050919050565b600061283482611a23565b915061283f83611a23565b9250828210156128525761285161255c565b5b828203905092915050565b7f4552433732313a207472616e7366657220746f206e6f6e20455243373231526560008201527f63656976657220696d706c656d656e7465720000000000000000000000000000602082015250565b60006128b9603283611973565b91506128c48261285d565b604082019050919050565b600060208201905081810360008301526128e8816128ac565b9050919050565b7f4552433732314d657461646174613a2055524920717565727920666f72206e6f60008201527f6e6578697374656e7420746f6b656e0000000000000000000000000000000000602082015250565b600061294b602f83611973565b9150612956826128ef565b604082019050919050565b6000602082019050818103600083015261297a8161293e565b9050919050565b600081519050919050565b600082825260208201905092915050565b60006129a882612981565b6129b2818561298c565b93506129c2818560208601611984565b6129cb816119b7565b840191505092915050565b60006080820190506129eb6000830187611ab8565b6129f86020830186611ab8565b612a056040830185611cdf565b8181036060830152612a17818461299d565b905095945050505050565b600081519050612a31816118d9565b92915050565b600060208284031215612a4d57612a4c6118a3565b5b6000612a5b84828501612a22565b91505092915050565b6000612a6f82611a23565b91507fffffffffffffffffffffffffffffffffffffffffffffffffffffffffffffffff821415612aa257612aa161255c565b5b600182019050919050565b7f4e487b7100000000000000000000000000000000000000000000000000000000600052601260045260246000fd5b6000612ae782611a23565b9150612af283611a23565b925082612b0257612b01612aad565b5b828204905092915050565b6000612b1882611a23565b9150612b2383611a23565b925082612b3357612b32612aad565b5b828206905092915050565b7f4e487b7100000000000000000000000000000000000000000000000000000000600052603260045260246000fdfea26469706673582212204408aa0bab22980308fd2447b6f8ff0f02007c08fe63f71f82a50d4d150049ff64736f6c63430008090033a26469706673582212208ea1a5995e53dd3179010e1dcaa352f886079fe2c9e688097a6b9eb5b034a37064736f6c63430008090033",
  "linkReferences": {},
  "deployedLinkReferences": {}
}