{
  "_format": "hh-sol-artifact-1",
  "contractName": "Provenance",
  "sourceName": "contracts/Provenance.sol",
  "abi": [
    {
      "inputs": [],
      "stateMutability": "nonpayable",
      "type": "constructor"
    },
    {
      "inputs": [
        {
          "internalType": "address",
          "name": "",
          "type": "address"
        }
      ],
      "name": "addressToArtistName",
      "outputs": [
        {
          "internalType": "string",
          "name": "",
          "type": "string"
        }
      ],
      "stateMutability": "view",
      "type": "function"
    },
    {
      "inputs": [
        {
          "internalType": "address",
          "name": "",
          "type": "address"
        }
      ],
      "name": "artistToArtwork",
      "outputs": [
        {
          "internalType": "uint256",
          "name": "",
          "type": "uint256"
        }
      ],
      "stateMutability": "view",
      "type": "function"
    },
    {
      "inputs": [
        {
          "internalType": "uint256",
          "name": "",
          "type": "uint256"
        },
        {
          "internalType": "uint256",
          "name": "",
          "type": "uint256"
        }
      ],
      "name": "artworkToHistory",
      "outputs": [
        {
          "internalType": "address",
          "name": "owner",
          "type": "address"
        },
        {
          "internalType": "uint256",
          "name": "date",
          "type": "uint256"
        }
      ],
      "stateMutability": "view",
      "type": "function"
    },
    {
      "inputs": [],
      "name": "getArtist",
      "outputs": [
        {
          "internalType": "string[]",
          "name": "",
          "type": "string[]"
        }
      ],
      "stateMutability": "view",
      "type": "function"
    },
    {
      "inputs": [
        {
          "internalType": "uint256",
          "name": "artHash",
          "type": "uint256"
        }
      ],
      "name": "getArtworkHistory",
      "outputs": [
        {
          "components": [
            {
              "internalType": "address",
              "name": "owner",
              "type": "address"
            },
            {
              "internalType": "uint256",
              "name": "date",
              "type": "uint256"
            }
          ],
          "internalType": "struct Provenance.History[]",
          "name": "",
          "type": "tuple[]"
        }
      ],
      "stateMutability": "view",
      "type": "function"
    },
    {
      "inputs": [
        {
          "internalType": "string",
          "name": "name",
          "type": "string"
        },
        {
          "internalType": "address",
          "name": "artist",
          "type": "address"
        }
      ],
      "name": "registerArtist",
      "outputs": [],
      "stateMutability": "nonpayable",
      "type": "function"
    },
    {
      "inputs": [
        {
          "internalType": "address",
          "name": "artist",
          "type": "address"
        },
        {
          "internalType": "string",
          "name": "artURI",
          "type": "string"
        }
      ],
      "name": "registerArtwork",
      "outputs": [
        {
          "internalType": "uint256",
          "name": "artId",
          "type": "uint256"
        }
      ],
      "stateMutability": "nonpayable",
      "type": "function"
    },
    {
      "inputs": [
        {
          "internalType": "address",
          "name": "previousOwner",
          "type": "address"
        },
        {
          "internalType": "address",
          "name": "newOwner",
          "type": "address"
        }
      ],
      "name": "transferOwnership",
      "outputs": [],
      "stateMutability": "nonpayable",
      "type": "function"
    }
  ],
  "bytecode": "0x60806040523480156200001157600080fd5b506200005d6040518060400160405280601781526020017f4465706c6f79696e6720612050726f76656e616e6365200000000000000000008152506200006360201b620007b51760201c565b620001f7565b62000103816040516024016200007a9190620001d3565b6040516020818303038152906040527f41304fac000000000000000000000000000000000000000000000000000000007bffffffffffffffffffffffffffffffffffffffffffffffffffffffff19166020820180517bffffffffffffffffffffffffffffffffffffffffffffffffffffffff83818316178352505050506200010660201b60201c565b50565b60008151905060006a636f6e736f6c652e6c6f679050602083016000808483855afa5050505050565b600081519050919050565b600082825260208201905092915050565b60005b838110156200016b5780820151818401526020810190506200014e565b838111156200017b576000848401525b50505050565b6000601f19601f8301169050919050565b60006200019f826200012f565b620001ab81856200013a565b9350620001bd8185602086016200014b565b620001c88162000181565b840191505092915050565b60006020820190508181036000830152620001ef818462000192565b905092915050565b6140ed80620002076000396000f3fe60806040523480156200001157600080fd5b5060043610620000945760003560e01c8063ccb360c81162000063578063ccb360c81462000146578063e094826b146200017c578063e53774ec146200019e578063f37afeac14620001d45762000094565b80632aaf2ed1146200009957806354f9a9a714620000d05780635755b9bc14620001065780636d4354211462000126575b600080fd5b620000b76004803603810190620000b1919062000988565b6200020a565b604051620000c792919062000a25565b60405180910390f35b620000ee6004803603810190620000e8919062000a83565b6200026c565b604051620000fd919062000ab5565b60405180910390f35b6200012460048036038101906200011e919062000c34565b62000284565b005b6200014460048036038101906200013e919062000c9a565b6200038f565b005b6200016460048036038101906200015e919062000a83565b62000393565b60405162000173919062000d74565b60405180910390f35b620001866200043b565b60405162000195919062000eba565b60405180910390f35b620001bc6004803603810190620001b6919062000ede565b6200051e565b604051620001cb919062001022565b60405180910390f35b620001f26004803603810190620001ec919062001046565b620005f2565b60405162000201919062000ab5565b60405180910390f35b600560205281600052604060002081815481106200022757600080fd5b9060005260206000209060020201600091509150508060000160009054906101000a900473ffffffffffffffffffffffffffffffffffffffff16908060010154905082565b60046020528060005260406000206000915090505481565b600073ffffffffffffffffffffffffffffffffffffffff168173ffffffffffffffffffffffffffffffffffffffff161415620002f7576040517f08c379a0000000000000000000000000000000000000000000000000000000008152600401620002ee90620010fc565b60405180910390fd5b600082908060018154018082558091505060019003906000526020600020016000909190919091509080519060200190620003349291906200087b565b5081600360008373ffffffffffffffffffffffffffffffffffffffff1673ffffffffffffffffffffffffffffffffffffffff16815260200190815260200160002090805190602001906200038a9291906200087b565b505050565b5050565b60036020528060005260406000206000915090508054620003b4906200114d565b80601f0160208091040260200160405190810160405280929190818152602001828054620003e2906200114d565b8015620004335780601f10620004075761010080835404028352916020019162000433565b820191906000526020600020905b8154815290600101906020018083116200041557829003601f168201915b505050505081565b60606000805480602002602001604051908101604052809291908181526020016000905b828210156200051557838290600052602060002001805462000481906200114d565b80601f0160208091040260200160405190810160405280929190818152602001828054620004af906200114d565b8015620005005780601f10620004d45761010080835404028352916020019162000500565b820191906000526020600020905b815481529060010190602001808311620004e257829003601f168201915b5050505050815260200190600101906200045f565b50505050905090565b606060056000838152602001908152602001600020805480602002602001604051908101604052809291908181526020016000905b82821015620005e757838290600052602060002090600202016040518060400160405290816000820160009054906101000a900473ffffffffffffffffffffffffffffffffffffffff1673ffffffffffffffffffffffffffffffffffffffff1673ffffffffffffffffffffffffffffffffffffffff1681526020016001820154815250508152602001906001019062000553565b505050509050919050565b60007fc5d2460186f7233c927e7db2dcc703c0e500b653ca82273b7bfad8045d85a470600360008573ffffffffffffffffffffffffffffffffffffffff1673ffffffffffffffffffffffffffffffffffffffff16815260200190815260200160002060405160200162000666919062001224565b604051602081830303815290604052805190602001201415620006c0576040517f08c379a0000000000000000000000000000000000000000000000000000000008152600401620006b79062001298565b60405180910390fd5b6000604051620006d0906200090c565b604051809103906000f080158015620006ed573d6000803e3d6000fd5b5090508073ffffffffffffffffffffffffffffffffffffffff16630cadfba385856040518363ffffffff1660e01b81526004016200072d929190620012ba565b602060405180830381600087803b1580156200074857600080fd5b505af11580156200075d573d6000803e3d6000fd5b505050506040513d601f19601f8201168201806040525081019062000783919062001305565b915060028290806001815401808255809150506001900390600052602060002001600090919091909150555092915050565b6200084f81604051602401620007cc919062000d74565b6040516020818303038152906040527f41304fac000000000000000000000000000000000000000000000000000000007bffffffffffffffffffffffffffffffffffffffffffffffffffffffff19166020820180517bffffffffffffffffffffffffffffffffffffffffffffffffffffffff838183161783525050505062000852565b50565b60008151905060006a636f6e736f6c652e6c6f679050602083016000808483855afa5050505050565b82805462000889906200114d565b90600052602060002090601f016020900481019282620008ad5760008555620008f9565b82601f10620008c857805160ff1916838001178555620008f9565b82800160010185558215620008f9579182015b82811115620008f8578251825591602001919060010190620008db565b5b5090506200090891906200091a565b5090565b612d80806200133883390190565b5b80821115620009355760008160009055506001016200091b565b5090565b6000604051905090565b600080fd5b600080fd5b6000819050919050565b62000962816200094d565b81146200096e57600080fd5b50565b600081359050620009828162000957565b92915050565b60008060408385031215620009a257620009a162000943565b5b6000620009b28582860162000971565b9250506020620009c58582860162000971565b9150509250929050565b600073ffffffffffffffffffffffffffffffffffffffff82169050919050565b6000620009fc82620009cf565b9050919050565b62000a0e81620009ef565b82525050565b62000a1f816200094d565b82525050565b600060408201905062000a3c600083018562000a03565b62000a4b602083018462000a14565b9392505050565b62000a5d81620009ef565b811462000a6957600080fd5b50565b60008135905062000a7d8162000a52565b92915050565b60006020828403121562000a9c5762000a9b62000943565b5b600062000aac8482850162000a6c565b91505092915050565b600060208201905062000acc600083018462000a14565b92915050565b600080fd5b600080fd5b6000601f19601f8301169050919050565b7f4e487b7100000000000000000000000000000000000000000000000000000000600052604160045260246000fd5b62000b278262000adc565b810181811067ffffffffffffffff8211171562000b495762000b4862000aed565b5b80604052505050565b600062000b5e62000939565b905062000b6c828262000b1c565b919050565b600067ffffffffffffffff82111562000b8f5762000b8e62000aed565b5b62000b9a8262000adc565b9050602081019050919050565b82818337600083830152505050565b600062000bcd62000bc78462000b71565b62000b52565b90508281526020810184848401111562000bec5762000beb62000ad7565b5b62000bf984828562000ba7565b509392505050565b600082601f83011262000c195762000c1862000ad2565b5b813562000c2b84826020860162000bb6565b91505092915050565b6000806040838503121562000c4e5762000c4d62000943565b5b600083013567ffffffffffffffff81111562000c6f5762000c6e62000948565b5b62000c7d8582860162000c01565b925050602062000c908582860162000a6c565b9150509250929050565b6000806040838503121562000cb45762000cb362000943565b5b600062000cc48582860162000a6c565b925050602062000cd78582860162000a6c565b9150509250929050565b600081519050919050565b600082825260208201905092915050565b60005b8381101562000d1d57808201518184015260208101905062000d00565b8381111562000d2d576000848401525b50505050565b600062000d408262000ce1565b62000d4c818562000cec565b935062000d5e81856020860162000cfd565b62000d698162000adc565b840191505092915050565b6000602082019050818103600083015262000d90818462000d33565b905092915050565b600081519050919050565b600082825260208201905092915050565b6000819050602082019050919050565b600082825260208201905092915050565b600062000de28262000ce1565b62000dee818562000dc4565b935062000e0081856020860162000cfd565b62000e0b8162000adc565b840191505092915050565b600062000e24838362000dd5565b905092915050565b6000602082019050919050565b600062000e468262000d98565b62000e52818562000da3565b93508360208202850162000e668562000db4565b8060005b8581101562000ea8578484038952815162000e86858262000e16565b945062000e938362000e2c565b925060208a0199505060018101905062000e6a565b50829750879550505050505092915050565b6000602082019050818103600083015262000ed6818462000e39565b905092915050565b60006020828403121562000ef75762000ef662000943565b5b600062000f078482850162000971565b91505092915050565b600081519050919050565b600082825260208201905092915050565b6000819050602082019050919050565b62000f4781620009ef565b82525050565b62000f58816200094d565b82525050565b60408201600082015162000f76600085018262000f3c565b50602082015162000f8b602085018262000f4d565b50505050565b600062000f9f838362000f5e565b60408301905092915050565b6000602082019050919050565b600062000fc58262000f10565b62000fd1818562000f1b565b935062000fde8362000f2c565b8060005b838110156200101557815162000ff9888262000f91565b9750620010068362000fab565b92505060018101905062000fe2565b5085935050505092915050565b600060208201905081810360008301526200103e818462000fb8565b905092915050565b6000806040838503121562001060576200105f62000943565b5b6000620010708582860162000a6c565b925050602083013567ffffffffffffffff81111562001094576200109362000948565b5b620010a28582860162000c01565b9150509250929050565b7f4172746973742063616e206e6f74206861766520302061646472657373000000600082015250565b6000620010e4601d8362000cec565b9150620010f182620010ac565b602082019050919050565b600060208201905081810360008301526200111781620010d5565b9050919050565b7f4e487b7100000000000000000000000000000000000000000000000000000000600052602260045260246000fd5b600060028204905060018216806200116657607f821691505b602082108114156200117d576200117c6200111e565b5b50919050565b60008190508160005260206000209050919050565b60008154620011a7816200114d565b620011b3818662000cec565b94506001821660008114620011d15760018114620011e4576200121b565b60ff19831686526020860193506200121b565b620011ef8562001183565b60005b838110156200121357815481890152600182019150602081019050620011f2565b808801955050505b50505092915050565b6000602082019050818103600083015262001240818462001198565b905092915050565b7f417274697374206973206e6f7420726567697374657265640000000000000000600082015250565b60006200128060188362000cec565b91506200128d8262001248565b602082019050919050565b60006020820190508181036000830152620012b38162001271565b9050919050565b6000604082019050620012d1600083018562000a03565b8181036020830152620012e5818462000d33565b90509392505050565b600081519050620012ff8162000957565b92915050565b6000602082840312156200131e576200131d62000943565b5b60006200132e84828501620012ee565b9150509291505056fe60806040523480156200001157600080fd5b506040518060400160405280600f81526020017f4f726967696e616c417274776f726b00000000000000000000000000000000008152506040518060400160405280600381526020017f4f41570000000000000000000000000000000000000000000000000000000000815250816000908051906020019062000096929190620000b8565b508060019080519060200190620000af929190620000b8565b505050620001cd565b828054620000c69062000197565b90600052602060002090601f016020900481019282620000ea576000855562000136565b82601f106200010557805160ff191683800117855562000136565b8280016001018555821562000136579182015b828111156200013557825182559160200191906001019062000118565b5b50905062000145919062000149565b5090565b5b80821115620001645760008160009055506001016200014a565b5090565b7f4e487b7100000000000000000000000000000000000000000000000000000000600052602260045260246000fd5b60006002820490506001821680620001b057607f821691505b60208210811415620001c757620001c662000168565b5b50919050565b612ba380620001dd6000396000f3fe608060405234801561001057600080fd5b50600436106100ea5760003560e01c80636352211e1161008c578063a22cb46511610066578063a22cb4651461026f578063b88d4fde1461028b578063c87b56dd146102a7578063e985e9c5146102d7576100ea565b80636352211e146101f157806370a082311461022157806395d89b4114610251576100ea565b8063095ea7b3116100c8578063095ea7b31461016d5780630cadfba31461018957806323b872dd146101b957806342842e0e146101d5576100ea565b806301ffc9a7146100ef57806306fdde031461011f578063081812fc1461013d575b600080fd5b61010960048036038101906101049190611905565b610307565b604051610116919061194d565b60405180910390f35b6101276103e9565b6040516101349190611a01565b60405180910390f35b61015760048036038101906101529190611a59565b61047b565b6040516101649190611ac7565b60405180910390f35b61018760048036038101906101829190611b0e565b610500565b005b6101a3600480360381019061019e9190611c83565b610618565b6040516101b09190611cee565b60405180910390f35b6101d360048036038101906101ce9190611d09565b610650565b005b6101ef60048036038101906101ea9190611d09565b6106b0565b005b61020b60048036038101906102069190611a59565b6106d0565b6040516102189190611ac7565b60405180910390f35b61023b60048036038101906102369190611d5c565b610782565b6040516102489190611cee565b60405180910390f35b61025961083a565b6040516102669190611a01565b60405180910390f35b61028960048036038101906102849190611db5565b6108cc565b005b6102a560048036038101906102a09190611e96565b610a4d565b005b6102c160048036038101906102bc9190611a59565b610aaf565b6040516102ce9190611a01565b60405180910390f35b6102f160048036038101906102ec9190611f19565b610c01565b6040516102fe919061194d565b60405180910390f35b60007f80ac58cd000000000000000000000000000000000000000000000000000000007bffffffffffffffffffffffffffffffffffffffffffffffffffffffff1916827bffffffffffffffffffffffffffffffffffffffffffffffffffffffff191614806103d257507f5b5e139f000000000000000000000000000000000000000000000000000000007bffffffffffffffffffffffffffffffffffffffffffffffffffffffff1916827bffffffffffffffffffffffffffffffffffffffffffffffffffffffff1916145b806103e257506103e182610c95565b5b9050919050565b6060600080546103f890611f88565b80601f016020809104026020016040519081016040528092919081815260200182805461042490611f88565b80156104715780601f1061044657610100808354040283529160200191610471565b820191906000526020600020905b81548152906001019060200180831161045457829003601f168201915b5050505050905090565b600061048682610cff565b6104c5576040517f08c379a00000000000000000000000000000000000000000000000000000000081526004016104bc9061202c565b60405180910390fd5b6004600083815260200190815260200160002060009054906101000a900473ffffffffffffffffffffffffffffffffffffffff169050919050565b600061050b826106d0565b90508073ffffffffffffffffffffffffffffffffffffffff168373ffffffffffffffffffffffffffffffffffffffff16141561057c576040517f08c379a0000000000000000000000000000000000000000000000000000000008152600401610573906120be565b60405180910390fd5b8073ffffffffffffffffffffffffffffffffffffffff1661059b610d6b565b73ffffffffffffffffffffffffffffffffffffffff1614806105ca57506105c9816105c4610d6b565b610c01565b5b610609576040517f08c379a000000000000000000000000000000000000000000000000000000000815260040161060090612150565b60405180910390fd5b6106138383610d73565b505050565b60006106246007610e2c565b60006106306007610e42565b905061063c8482610e50565b610646818461101e565b8091505092915050565b61066161065b610d6b565b82611092565b6106a0576040517f08c379a0000000000000000000000000000000000000000000000000000000008152600401610697906121e2565b60405180910390fd5b6106ab838383611170565b505050565b6106cb83838360405180602001604052806000815250610a4d565b505050565b6000806002600084815260200190815260200160002060009054906101000a900473ffffffffffffffffffffffffffffffffffffffff169050600073ffffffffffffffffffffffffffffffffffffffff168173ffffffffffffffffffffffffffffffffffffffff161415610779576040517f08c379a000000000000000000000000000000000000000000000000000000000815260040161077090612274565b60405180910390fd5b80915050919050565b60008073ffffffffffffffffffffffffffffffffffffffff168273ffffffffffffffffffffffffffffffffffffffff1614156107f3576040517f08c379a00000000000000000000000000000000000000000000000000000000081526004016107ea90612306565b60405180910390fd5b600360008373ffffffffffffffffffffffffffffffffffffffff1673ffffffffffffffffffffffffffffffffffffffff168152602001908152602001600020549050919050565b60606001805461084990611f88565b80601f016020809104026020016040519081016040528092919081815260200182805461087590611f88565b80156108c25780601f10610897576101008083540402835291602001916108c2565b820191906000526020600020905b8154815290600101906020018083116108a557829003601f168201915b5050505050905090565b6108d4610d6b565b73ffffffffffffffffffffffffffffffffffffffff168273ffffffffffffffffffffffffffffffffffffffff161415610942576040517f08c379a000000000000000000000000000000000000000000000000000000000815260040161093990612372565b60405180910390fd5b806005600061094f610d6b565b73ffffffffffffffffffffffffffffffffffffffff1673ffffffffffffffffffffffffffffffffffffffff16815260200190815260200160002060008473ffffffffffffffffffffffffffffffffffffffff1673ffffffffffffffffffffffffffffffffffffffff16815260200190815260200160002060006101000a81548160ff0219169083151502179055508173ffffffffffffffffffffffffffffffffffffffff166109fc610d6b565b73ffffffffffffffffffffffffffffffffffffffff167f17307eab39ab6107e8899845ad3d59bd9653f200f220920489ca2b5937696c3183604051610a41919061194d565b60405180910390a35050565b610a5e610a58610d6b565b83611092565b610a9d576040517f08c379a0000000000000000000000000000000000000000000000000000000008152600401610a94906121e2565b60405180910390fd5b610aa9848484846113cc565b50505050565b6060610aba82610cff565b610af9576040517f08c379a0000000000000000000000000000000000000000000000000000000008152600401610af090612404565b60405180910390fd5b6000600660008481526020019081526020016000208054610b1990611f88565b80601f0160208091040260200160405190810160405280929190818152602001828054610b4590611f88565b8015610b925780601f10610b6757610100808354040283529160200191610b92565b820191906000526020600020905b815481529060010190602001808311610b7557829003601f168201915b505050505090506000610ba3611428565b9050600081511415610bb9578192505050610bfc565b600082511115610bee578082604051602001610bd6929190612460565b60405160208183030381529060405292505050610bfc565b610bf78461143f565b925050505b919050565b6000600560008473ffffffffffffffffffffffffffffffffffffffff1673ffffffffffffffffffffffffffffffffffffffff16815260200190815260200160002060008373ffffffffffffffffffffffffffffffffffffffff1673ffffffffffffffffffffffffffffffffffffffff16815260200190815260200160002060009054906101000a900460ff16905092915050565b60007f01ffc9a7000000000000000000000000000000000000000000000000000000007bffffffffffffffffffffffffffffffffffffffffffffffffffffffff1916827bffffffffffffffffffffffffffffffffffffffffffffffffffffffff1916149050919050565b60008073ffffffffffffffffffffffffffffffffffffffff166002600084815260200190815260200160002060009054906101000a900473ffffffffffffffffffffffffffffffffffffffff1673ffffffffffffffffffffffffffffffffffffffff1614159050919050565b600033905090565b816004600083815260200190815260200160002060006101000a81548173ffffffffffffffffffffffffffffffffffffffff021916908373ffffffffffffffffffffffffffffffffffffffff160217905550808273ffffffffffffffffffffffffffffffffffffffff16610de6836106d0565b73ffffffffffffffffffffffffffffffffffffffff167f8c5be1e5ebec7d5bd14f71427d1e84f3dd0314c0f7b2291e5b200ac8c7c3b92560405160405180910390a45050565b6001816000016000828254019250508190555050565b600081600001549050919050565b600073ffffffffffffffffffffffffffffffffffffffff168273ffffffffffffffffffffffffffffffffffffffff161415610ec0576040517f08c379a0000000000000000000000000000000000000000000000000000000008152600401610eb7906124d0565b60405180910390fd5b610ec981610cff565b15610f09576040517f08c379a0000000000000000000000000000000000000000000000000000000008152600401610f009061253c565b60405180910390fd5b610f15600083836114e6565b6001600360008473ffffffffffffffffffffffffffffffffffffffff1673ffffffffffffffffffffffffffffffffffffffff1681526020019081526020016000206000828254610f65919061258b565b92505081905550816002600083815260200190815260200160002060006101000a81548173ffffffffffffffffffffffffffffffffffffffff021916908373ffffffffffffffffffffffffffffffffffffffff160217905550808273ffffffffffffffffffffffffffffffffffffffff16600073ffffffffffffffffffffffffffffffffffffffff167fddf252ad1be2c89b69c2b068fc378daa952ba7f163c4a11628f55a4df523b3ef60405160405180910390a45050565b61102782610cff565b611066576040517f08c379a000000000000000000000000000000000000000000000000000000000815260040161105d90612653565b60405180910390fd5b8060066000848152602001908152602001600020908051906020019061108d9291906117f6565b505050565b600061109d82610cff565b6110dc576040517f08c379a00000000000000000000000000000000000000000000000000000000081526004016110d3906126e5565b60405180910390fd5b60006110e7836106d0565b90508073ffffffffffffffffffffffffffffffffffffffff168473ffffffffffffffffffffffffffffffffffffffff16148061115657508373ffffffffffffffffffffffffffffffffffffffff1661113e8461047b565b73ffffffffffffffffffffffffffffffffffffffff16145b8061116757506111668185610c01565b5b91505092915050565b8273ffffffffffffffffffffffffffffffffffffffff16611190826106d0565b73ffffffffffffffffffffffffffffffffffffffff16146111e6576040517f08c379a00000000000000000000000000000000000000000000000000000000081526004016111dd90612777565b60405180910390fd5b600073ffffffffffffffffffffffffffffffffffffffff168273ffffffffffffffffffffffffffffffffffffffff161415611256576040517f08c379a000000000000000000000000000000000000000000000000000000000815260040161124d90612809565b60405180910390fd5b6112618383836114e6565b61126c600082610d73565b6001600360008573ffffffffffffffffffffffffffffffffffffffff1673ffffffffffffffffffffffffffffffffffffffff16815260200190815260200160002060008282546112bc9190612829565b925050819055506001600360008473ffffffffffffffffffffffffffffffffffffffff1673ffffffffffffffffffffffffffffffffffffffff1681526020019081526020016000206000828254611313919061258b565b92505081905550816002600083815260200190815260200160002060006101000a81548173ffffffffffffffffffffffffffffffffffffffff021916908373ffffffffffffffffffffffffffffffffffffffff160217905550808273ffffffffffffffffffffffffffffffffffffffff168473ffffffffffffffffffffffffffffffffffffffff167fddf252ad1be2c89b69c2b068fc378daa952ba7f163c4a11628f55a4df523b3ef60405160405180910390a4505050565b6113d7848484611170565b6113e3848484846114eb565b611422576040517f08c379a0000000000000000000000000000000000000000000000000000000008152600401611419906128cf565b60405180910390fd5b50505050565b606060405180602001604052806000815250905090565b606061144a82610cff565b611489576040517f08c379a000000000000000000000000000000000000000000000000000000000815260040161148090612961565b60405180910390fd5b6000611493611428565b905060008151116114b357604051806020016040528060008152506114de565b806114bd84611682565b6040516020016114ce929190612460565b6040516020818303038152906040525b915050919050565b505050565b600061150c8473ffffffffffffffffffffffffffffffffffffffff166117e3565b15611675578373ffffffffffffffffffffffffffffffffffffffff1663150b7a02611535610d6b565b8786866040518563ffffffff1660e01b815260040161155794939291906129d6565b602060405180830381600087803b15801561157157600080fd5b505af19250505080156115a257506040513d601f19601f8201168201806040525081019061159f9190612a37565b60015b611625573d80600081146115d2576040519150601f19603f3d011682016040523d82523d6000602084013e6115d7565b606091505b5060008151141561161d576040517f08c379a0000000000000000000000000000000000000000000000000000000008152600401611614906128cf565b60405180910390fd5b805181602001fd5b63150b7a0260e01b7bffffffffffffffffffffffffffffffffffffffffffffffffffffffff1916817bffffffffffffffffffffffffffffffffffffffffffffffffffffffff19161491505061167a565b600190505b949350505050565b606060008214156116ca576040518060400160405280600181526020017f300000000000000000000000000000000000000000000000000000000000000081525090506117de565b600082905060005b600082146116fc5780806116e590612a64565b915050600a826116f59190612adc565b91506116d2565b60008167ffffffffffffffff81111561171857611717611b58565b5b6040519080825280601f01601f19166020018201604052801561174a5781602001600182028036833780820191505090505b5090505b600085146117d7576001826117639190612829565b9150600a856117729190612b0d565b603061177e919061258b565b60f81b81838151811061179457611793612b3e565b5b60200101907effffffffffffffffffffffffffffffffffffffffffffffffffffffffffffff1916908160001a905350600a856117d09190612adc565b945061174e565b8093505050505b919050565b600080823b905060008111915050919050565b82805461180290611f88565b90600052602060002090601f016020900481019282611824576000855561186b565b82601f1061183d57805160ff191683800117855561186b565b8280016001018555821561186b579182015b8281111561186a57825182559160200191906001019061184f565b5b509050611878919061187c565b5090565b5b8082111561189557600081600090555060010161187d565b5090565b6000604051905090565b600080fd5b600080fd5b60007fffffffff0000000000000000000000000000000000000000000000000000000082169050919050565b6118e2816118ad565b81146118ed57600080fd5b50565b6000813590506118ff816118d9565b92915050565b60006020828403121561191b5761191a6118a3565b5b6000611929848285016118f0565b91505092915050565b60008115159050919050565b61194781611932565b82525050565b6000602082019050611962600083018461193e565b92915050565b600081519050919050565b600082825260208201905092915050565b60005b838110156119a2578082015181840152602081019050611987565b838111156119b1576000848401525b50505050565b6000601f19601f8301169050919050565b60006119d382611968565b6119dd8185611973565b93506119ed818560208601611984565b6119f6816119b7565b840191505092915050565b60006020820190508181036000830152611a1b81846119c8565b905092915050565b6000819050919050565b611a3681611a23565b8114611a4157600080fd5b50565b600081359050611a5381611a2d565b92915050565b600060208284031215611a6f57611a6e6118a3565b5b6000611a7d84828501611a44565b91505092915050565b600073ffffffffffffffffffffffffffffffffffffffff82169050919050565b6000611ab182611a86565b9050919050565b611ac181611aa6565b82525050565b6000602082019050611adc6000830184611ab8565b92915050565b611aeb81611aa6565b8114611af657600080fd5b50565b600081359050611b0881611ae2565b92915050565b60008060408385031215611b2557611b246118a3565b5b6000611b3385828601611af9565b9250506020611b4485828601611a44565b9150509250929050565b600080fd5b600080fd5b7f4e487b7100000000000000000000000000000000000000000000000000000000600052604160045260246000fd5b611b90826119b7565b810181811067ffffffffffffffff82111715611baf57611bae611b58565b5b80604052505050565b6000611bc2611899565b9050611bce8282611b87565b919050565b600067ffffffffffffffff821115611bee57611bed611b58565b5b611bf7826119b7565b9050602081019050919050565b82818337600083830152505050565b6000611c26611c2184611bd3565b611bb8565b905082815260208101848484011115611c4257611c41611b53565b5b611c4d848285611c04565b509392505050565b600082601f830112611c6a57611c69611b4e565b5b8135611c7a848260208601611c13565b91505092915050565b60008060408385031215611c9a57611c996118a3565b5b6000611ca885828601611af9565b925050602083013567ffffffffffffffff811115611cc957611cc86118a8565b5b611cd585828601611c55565b9150509250929050565b611ce881611a23565b82525050565b6000602082019050611d036000830184611cdf565b92915050565b600080600060608486031215611d2257611d216118a3565b5b6000611d3086828701611af9565b9350506020611d4186828701611af9565b9250506040611d5286828701611a44565b9150509250925092565b600060208284031215611d7257611d716118a3565b5b6000611d8084828501611af9565b91505092915050565b611d9281611932565b8114611d9d57600080fd5b50565b600081359050611daf81611d89565b92915050565b60008060408385031215611dcc57611dcb6118a3565b5b6000611dda85828601611af9565b9250506020611deb85828601611da0565b9150509250929050565b600067ffffffffffffffff821115611e1057611e0f611b58565b5b611e19826119b7565b9050602081019050919050565b6000611e39611e3484611df5565b611bb8565b905082815260208101848484011115611e5557611e54611b53565b5b611e60848285611c04565b509392505050565b600082601f830112611e7d57611e7c611b4e565b5b8135611e8d848260208601611e26565b91505092915050565b60008060008060808587031215611eb057611eaf6118a3565b5b6000611ebe87828801611af9565b9450506020611ecf87828801611af9565b9350506040611ee087828801611a44565b925050606085013567ffffffffffffffff811115611f0157611f006118a8565b5b611f0d87828801611e68565b91505092959194509250565b60008060408385031215611f3057611f2f6118a3565b5b6000611f3e85828601611af9565b9250506020611f4f85828601611af9565b9150509250929050565b7f4e487b7100000000000000000000000000000000000000000000000000000000600052602260045260246000fd5b60006002820490506001821680611fa057607f821691505b60208210811415611fb457611fb3611f59565b5b50919050565b7f4552433732313a20617070726f76656420717565727920666f72206e6f6e657860008201527f697374656e7420746f6b656e0000000000000000000000000000000000000000602082015250565b6000612016602c83611973565b915061202182611fba565b604082019050919050565b6000602082019050818103600083015261204581612009565b9050919050565b7f4552433732313a20617070726f76616c20746f2063757272656e74206f776e6560008201527f7200000000000000000000000000000000000000000000000000000000000000602082015250565b60006120a8602183611973565b91506120b38261204c565b604082019050919050565b600060208201905081810360008301526120d78161209b565b9050919050565b7f4552433732313a20617070726f76652063616c6c6572206973206e6f74206f7760008201527f6e6572206e6f7220617070726f76656420666f7220616c6c0000000000000000602082015250565b600061213a603883611973565b9150612145826120de565b604082019050919050565b600060208201905081810360008301526121698161212d565b9050919050565b7f4552433732313a207472616e736665722063616c6c6572206973206e6f74206f60008201527f776e6572206e6f7220617070726f766564000000000000000000000000000000602082015250565b60006121cc603183611973565b91506121d782612170565b604082019050919050565b600060208201905081810360008301526121fb816121bf565b9050919050565b7f4552433732313a206f776e657220717565727920666f72206e6f6e657869737460008201527f656e7420746f6b656e0000000000000000000000000000000000000000000000602082015250565b600061225e602983611973565b915061226982612202565b604082019050919050565b6000602082019050818103600083015261228d81612251565b9050919050565b7f4552433732313a2062616c616e636520717565727920666f7220746865207a6560008201527f726f206164647265737300000000000000000000000000000000000000000000602082015250565b60006122f0602a83611973565b91506122fb82612294565b604082019050919050565b6000602082019050818103600083015261231f816122e3565b9050919050565b7f4552433732313a20617070726f766520746f2063616c6c657200000000000000600082015250565b600061235c601983611973565b915061236782612326565b602082019050919050565b6000602082019050818103600083015261238b8161234f565b9050919050565b7f45524337323155524953746f726167653a2055524920717565727920666f722060008201527f6e6f6e6578697374656e7420746f6b656e000000000000000000000000000000602082015250565b60006123ee603183611973565b91506123f982612392565b604082019050919050565b6000602082019050818103600083015261241d816123e1565b9050919050565b600081905092915050565b600061243a82611968565b6124448185612424565b9350612454818560208601611984565b80840191505092915050565b600061246c828561242f565b9150612478828461242f565b91508190509392505050565b7f4552433732313a206d696e7420746f20746865207a65726f2061646472657373600082015250565b60006124ba602083611973565b91506124c582612484565b602082019050919050565b600060208201905081810360008301526124e9816124ad565b9050919050565b7f4552433732313a20746f6b656e20616c7265616479206d696e74656400000000600082015250565b6000612526601c83611973565b9150612531826124f0565b602082019050919050565b6000602082019050818103600083015261255581612519565b9050919050565b7f4e487b7100000000000000000000000000000000000000000000000000000000600052601160045260246000fd5b600061259682611a23565b91506125a183611a23565b9250827fffffffffffffffffffffffffffffffffffffffffffffffffffffffffffffffff038211156125d6576125d561255c565b5b828201905092915050565b7f45524337323155524953746f726167653a2055524920736574206f66206e6f6e60008201527f6578697374656e7420746f6b656e000000000000000000000000000000000000602082015250565b600061263d602e83611973565b9150612648826125e1565b604082019050919050565b6000602082019050818103600083015261266c81612630565b9050919050565b7f4552433732313a206f70657261746f7220717565727920666f72206e6f6e657860008201527f697374656e7420746f6b656e0000000000000000000000000000000000000000602082015250565b60006126cf602c83611973565b91506126da82612673565b604082019050919050565b600060208201905081810360008301526126fe816126c2565b9050919050565b7f4552433732313a207472616e73666572206f6620746f6b656e2074686174206960008201527f73206e6f74206f776e0000000000000000000000000000000000000000000000602082015250565b6000612761602983611973565b915061276c82612705565b604082019050919050565b6000602082019050818103600083015261279081612754565b9050919050565b7f4552433732313a207472616e7366657220746f20746865207a65726f2061646460008201527f7265737300000000000000000000000000000000000000000000000000000000602082015250565b60006127f3602483611973565b91506127fe82612797565b604082019050919050565b60006020820190508181036000830152612822816127e6565b9050919050565b600061283482611a23565b915061283f83611a23565b9250828210156128525761285161255c565b5b828203905092915050565b7f4552433732313a207472616e7366657220746f206e6f6e20455243373231526560008201527f63656976657220696d706c656d656e7465720000000000000000000000000000602082015250565b60006128b9603283611973565b91506128c48261285d565b604082019050919050565b600060208201905081810360008301526128e8816128ac565b9050919050565b7f4552433732314d657461646174613a2055524920717565727920666f72206e6f60008201527f6e6578697374656e7420746f6b656e0000000000000000000000000000000000602082015250565b600061294b602f83611973565b9150612956826128ef565b604082019050919050565b6000602082019050818103600083015261297a8161293e565b9050919050565b600081519050919050565b600082825260208201905092915050565b60006129a882612981565b6129b2818561298c565b93506129c2818560208601611984565b6129cb816119b7565b840191505092915050565b60006080820190506129eb6000830187611ab8565b6129f86020830186611ab8565b612a056040830185611cdf565b8181036060830152612a17818461299d565b905095945050505050565b600081519050612a31816118d9565b92915050565b600060208284031215612a4d57612a4c6118a3565b5b6000612a5b84828501612a22565b91505092915050565b6000612a6f82611a23565b91507fffffffffffffffffffffffffffffffffffffffffffffffffffffffffffffffff821415612aa257612aa161255c565b5b600182019050919050565b7f4e487b7100000000000000000000000000000000000000000000000000000000600052601260045260246000fd5b6000612ae782611a23565b9150612af283611a23565b925082612b0257612b01612aad565b5b828204905092915050565b6000612b1882611a23565b9150612b2383611a23565b925082612b3357612b32612aad565b5b828206905092915050565b7f4e487b7100000000000000000000000000000000000000000000000000000000600052603260045260246000fdfea26469706673582212200321c55967a77e9f7a422a227106f3198fe958d848b9263c0f9985ff375258bb64736f6c63430008090033a26469706673582212207e0b0ba2c29bf567c22c22641462b7694a33ca59df16cb4a712a87a0ef54d12064736f6c63430008090033",
  "linkReferences": {},
  "deployedLinkReferences": {}
}